{"abi":[{"type":"function","name":"EPOCH_DURATION","inputs":[],"outputs":[{"name":"","type":"uint256","internalType":"uint256"}],"stateMutability":"view"},{"type":"function","name":"MIN_DEPOSIT","inputs":[],"outputs":[{"name":"","type":"uint256","internalType":"uint256"}],"stateMutability":"view"},{"type":"function","name":"WITHDRAWAL_LOCK_EPOCH","inputs":[],"outputs":[{"name":"","type":"uint256","internalType":"uint256"}],"stateMutability":"view"},{"type":"function","name":"acceptOwnership","inputs":[],"outputs":[],"stateMutability":"nonpayable"},{"type":"function","name":"addressManager","inputs":[],"outputs":[{"name":"","type":"address","internalType":"address"}],"stateMutability":"view"},{"type":"function","name":"getCurrentEpoch","inputs":[],"outputs":[{"name":"","type":"uint256","internalType":"uint256"}],"stateMutability":"view"},{"type":"function","name":"impl","inputs":[],"outputs":[{"name":"","type":"address","internalType":"address"}],"stateMutability":"view"},{"type":"function","name":"inNonReentrant","inputs":[],"outputs":[{"name":"","type":"bool","internalType":"bool"}],"stateMutability":"view"},{"type":"function","name":"init","inputs":[{"name":"_owner","type":"address","internalType":"address"},{"name":"_rollupAddressManager","type":"address","internalType":"address"}],"outputs":[],"stateMutability":"nonpayable"},{"type":"function","name":"lastUnpausedAt","inputs":[],"outputs":[{"name":"","type":"uint64","internalType":"uint64"}],"stateMutability":"view"},{"type":"function","name":"owner","inputs":[],"outputs":[{"name":"","type":"address","internalType":"address"}],"stateMutability":"view"},{"type":"function","name":"pause","inputs":[],"outputs":[],"stateMutability":"nonpayable"},{"type":"function","name":"pauseUserReward","inputs":[{"name":"_user","type":"address","internalType":"address"},{"name":"_epochAmount","type":"uint256","internalType":"uint256"}],"outputs":[],"stateMutability":"nonpayable"},{"type":"function","name":"paused","inputs":[],"outputs":[{"name":"","type":"bool","internalType":"bool"}],"stateMutability":"view"},{"type":"function","name":"pendingOwner","inputs":[],"outputs":[{"name":"","type":"address","internalType":"address"}],"stateMutability":"view"},{"type":"function","name":"proxiableUUID","inputs":[],"outputs":[{"name":"","type":"bytes32","internalType":"bytes32"}],"stateMutability":"view"},{"type":"function","name":"renounceOwnership","inputs":[],"outputs":[],"stateMutability":"nonpayable"},{"type":"function","name":"resolve","inputs":[{"name":"_chainId","type":"uint64","internalType":"uint64"},{"name":"_name","type":"bytes32","internalType":"bytes32"},{"name":"_allowZeroAddress","type":"bool","internalType":"bool"}],"outputs":[{"name":"","type":"address","internalType":"address"}],"stateMutability":"view"},{"type":"function","name":"resolve","inputs":[{"name":"_name","type":"bytes32","internalType":"bytes32"},{"name":"_allowZeroAddress","type":"bool","internalType":"bool"}],"outputs":[{"name":"","type":"address","internalType":"address"}],"stateMutability":"view"},{"type":"function","name":"stake","inputs":[{"name":"_user","type":"address","internalType":"address"},{"name":"_amount","type":"uint256","internalType":"uint256"}],"outputs":[],"stateMutability":"nonpayable"},{"type":"function","name":"stakingCalculateRewardDebt","inputs":[{"name":"user","type":"address","internalType":"address"}],"outputs":[{"name":"","type":"uint256","internalType":"uint256"}],"stateMutability":"view"},{"type":"function","name":"stakingClaimReward","inputs":[],"outputs":[],"stateMutability":"nonpayable"},{"type":"function","name":"stakingDepositReward","inputs":[],"outputs":[],"stateMutability":"nonpayable"},{"type":"function","name":"stakingRequestWithdrawal","inputs":[{"name":"cancel","type":"bool","internalType":"bool"}],"outputs":[],"stateMutability":"nonpayable"},{"type":"function","name":"stakingSlashing","inputs":[{"name":"_user","type":"address","internalType":"address"},{"name":"_rate","type":"uint256","internalType":"uint256"}],"outputs":[],"stateMutability":"nonpayable"},{"type":"function","name":"stakingState","inputs":[],"outputs":[{"name":"totalBalance","type":"uint256","internalType":"uint256"},{"name":"totalReward","type":"uint256","internalType":"uint256"},{"name":"lastDepositRewardTime","type":"uint64","internalType":"uint64"},{"name":"rewardBeginEpoch","type":"uint64","internalType":"uint64"},{"name":"__reserved2","type":"uint64","internalType":"uint64"},{"name":"__reserved3","type":"uint64","internalType":"uint64"}],"stateMutability":"view"},{"type":"function","name":"stakingUserState","inputs":[{"name":"_user","type":"address","internalType":"address"}],"outputs":[{"name":"","type":"uint256","internalType":"uint256"},{"name":"","type":"uint256","internalType":"uint256"},{"name":"","type":"uint256","internalType":"uint256"}],"stateMutability":"view"},{"type":"function","name":"stakingWithdrawal","inputs":[],"outputs":[],"stateMutability":"nonpayable"},{"type":"function","name":"transferOwnership","inputs":[{"name":"newOwner","type":"address","internalType":"address"}],"outputs":[],"stateMutability":"nonpayable"},{"type":"function","name":"unpause","inputs":[],"outputs":[],"stateMutability":"nonpayable"},{"type":"function","name":"upgradeTo","inputs":[{"name":"newImplementation","type":"address","internalType":"address"}],"outputs":[],"stateMutability":"nonpayable"},{"type":"function","name":"upgradeToAndCall","inputs":[{"name":"newImplementation","type":"address","internalType":"address"},{"name":"data","type":"bytes","internalType":"bytes"}],"outputs":[],"stateMutability":"payable"},{"type":"event","name":"AdminChanged","inputs":[{"name":"previousAdmin","type":"address","indexed":false,"internalType":"address"},{"name":"newAdmin","type":"address","indexed":false,"internalType":"address"}],"anonymous":false},{"type":"event","name":"BeaconUpgraded","inputs":[{"name":"beacon","type":"address","indexed":true,"internalType":"address"}],"anonymous":false},{"type":"event","name":"ClaimReward","inputs":[{"name":"user","type":"address","indexed":true,"internalType":"address"},{"name":"amount","type":"uint256","indexed":false,"internalType":"uint256"},{"name":"epoch","type":"uint256","indexed":false,"internalType":"uint256"}],"anonymous":false},{"type":"event","name":"DepositReward","inputs":[{"name":"user","type":"address","indexed":true,"internalType":"address"},{"name":"amount","type":"uint256","indexed":false,"internalType":"uint256"}],"anonymous":false},{"type":"event","name":"Initialized","inputs":[{"name":"version","type":"uint8","indexed":false,"internalType":"uint8"}],"anonymous":false},{"type":"event","name":"OwnershipTransferStarted","inputs":[{"name":"previousOwner","type":"address","indexed":true,"internalType":"address"},{"name":"newOwner","type":"address","indexed":true,"internalType":"address"}],"anonymous":false},{"type":"event","name":"OwnershipTransferred","inputs":[{"name":"previousOwner","type":"address","indexed":true,"internalType":"address"},{"name":"newOwner","type":"address","indexed":true,"internalType":"address"}],"anonymous":false},{"type":"event","name":"Paused","inputs":[{"name":"account","type":"address","indexed":false,"internalType":"address"}],"anonymous":false},{"type":"event","name":"Slash","inputs":[{"name":"user","type":"address","indexed":true,"internalType":"address"},{"name":"amount","type":"uint256","indexed":false,"internalType":"uint256"}],"anonymous":false},{"type":"event","name":"Staking","inputs":[{"name":"user","type":"address","indexed":true,"internalType":"address"},{"name":"amount","type":"uint256","indexed":false,"internalType":"uint256"}],"anonymous":false},{"type":"event","name":"Unpaused","inputs":[{"name":"account","type":"address","indexed":false,"internalType":"address"}],"anonymous":false},{"type":"event","name":"Upgraded","inputs":[{"name":"implementation","type":"address","indexed":true,"internalType":"address"}],"anonymous":false},{"type":"event","name":"Withdrawal","inputs":[{"name":"user","type":"address","indexed":true,"internalType":"address"},{"name":"amount","type":"uint256","indexed":false,"internalType":"uint256"}],"anonymous":false},{"type":"error","name":"FUNC_NOT_IMPLEMENTED","inputs":[]},{"type":"error","name":"INSUFFICIENT_BALANCE","inputs":[]},{"type":"error","name":"INSUFFICIENT_DEPOSIT","inputs":[]},{"type":"error","name":"INVALID_PAUSE_STATUS","inputs":[]},{"type":"error","name":"REENTRANT_CALL","inputs":[]},{"type":"error","name":"RESOLVER_DENIED","inputs":[]},{"type":"error","name":"RESOLVER_INVALID_MANAGER","inputs":[]},{"type":"error","name":"RESOLVER_UNEXPECTED_CHAINID","inputs":[]},{"type":"error","name":"RESOLVER_ZERO_ADDR","inputs":[{"name":"chainId","type":"uint64","internalType":"uint64"},{"name":"name","type":"bytes32","internalType":"bytes32"}]},{"type":"error","name":"REWARD_ALREADY_CLAIMED","inputs":[]},{"type":"error","name":"WITHDRAWAL_LOCKED","inputs":[]},{"type":"error","name":"ZERO_ADDRESS","inputs":[]},{"type":"error","name":"ZERO_VALUE","inputs":[]}],"bytecode":{"object":"0x60a060405230608052348015610013575f5ffd5b5061001c610029565b610024610029565b6100e5565b5f54610100900460ff16156100945760405162461bcd60e51b815260206004820152602760248201527f496e697469616c697a61626c653a20636f6e747261637420697320696e697469604482015266616c697a696e6760c81b606482015260840160405180910390fd5b5f5460ff908116146100e3575f805460ff191660ff9081179091556040519081527f7f26b83ff96e1f2b6a682f133852f6798a09c465da95921460cefb38474024989060200160405180910390a15b565b60805161239f6101195f395f818161064a01528181610693015281816108220152818161086201526108dd015261239f5ff3fe6080604052600436106101db575f3560e01c80638abf6077116100fd578063cad9e2ba11610092578063e30c397811610062578063e30c3978146105b9578063f09a4016146105d6578063f2fde38b146105f5578063fcfcf19214610614575f5ffd5b8063cad9e2ba14610475578063e07baba6146104db578063e082f1d414610518578063e1e158a51461059c575f5ffd5b8063a86f9d9e116100cd578063a86f9d9e14610404578063adc9772e14610423578063b1d4a73114610442578063b97dd9e214610461575f5ffd5b80638abf60771461039e5780638c7638c4146103b25780638da5cb5b146103d1578063a70b9f0c146103ee575f5ffd5b80634f1ef2861161017357806365ad57501161014357806365ad57501461034e578063715018a61461036257806379ba5097146103765780638456cb591461038a575f5ffd5b80634f1ef286146102e857806352d1902d146102fb57806354686bfa1461030f5780635c975abb1461032e575f5ffd5b80633eb6b8cf116101ae5780633eb6b8cf146102825780633f4ba83a146102a157806340d377ef146102b557806349d2f79b146102c9575f5ffd5b80631b0e9ec7146101df5780633075db56146102065780633659cfe61461022a5780633ab76e9f1461024b575b5f5ffd5b3480156101ea575f5ffd5b506101f3600281565b6040519081526020015b60405180910390f35b348015610211575f5ffd5b5061021a610628565b60405190151581526020016101fd565b348015610235575f5ffd5b50610249610244366004611f4f565b610640565b005b348015610256575f5ffd5b5060975461026a906001600160a01b031681565b6040516001600160a01b0390911681526020016101fd565b34801561028d575f5ffd5b5061026a61029c366004611f77565b610710565b3480156102ac575f5ffd5b50610249610726565b3480156102c0575f5ffd5b5061024961073a565b3480156102d4575f5ffd5b506102496102e3366004611fc1565b6107b8565b6102496102f6366004611ff0565b610818565b348015610306575f5ffd5b506101f36108d1565b34801561031a575f5ffd5b506102496103293660046120b3565b610982565b348015610339575f5ffd5b5061021a60b154610100900460ff1660021490565b348015610359575f5ffd5b50610249610ab0565b34801561036d575f5ffd5b50610249610cab565b348015610381575f5ffd5b50610249610cbc565b348015610395575f5ffd5b50610249610d33565b3480156103a9575f5ffd5b5061026a610d46565b3480156103bd575f5ffd5b506102496103cc3660046120b3565b610d54565b3480156103dc575f5ffd5b506033546001600160a01b031661026a565b3480156103f9575f5ffd5b506101f362093a8081565b34801561040f575f5ffd5b5061026a61041e3660046120dd565b610df4565b34801561042e575f5ffd5b5061024961043d3660046120b3565b610e09565b34801561044d575f5ffd5b506101f361045c366004611f4f565b610fda565b34801561046c575f5ffd5b506101f3611116565b348015610480575f5ffd5b506104c061048f366004611f4f565b6001600160a01b03165f90815260c9602090815260408083205460ca83528184205460cb9093529220549192909190565b604080519384526020840192909252908201526060016101fd565b3480156104e6575f5ffd5b5060b154610500906201000090046001600160401b031681565b6040516001600160401b0390911681526020016101fd565b348015610523575f5ffd5b5060cc5460cd5460ce5461055e9291906001600160401b0380821691600160401b8104821691600160801b8204811691600160c01b90041686565b6040805196875260208701959095526001600160401b03938416948601949094529082166060850152811660808401521660a082015260c0016101fd565b3480156105a7575f5ffd5b506101f369d3c21bcecceda100000081565b3480156105c4575f5ffd5b506065546001600160a01b031661026a565b3480156105e1575f5ffd5b506102496105f036600461210b565b611124565b348015610600575f5ffd5b5061024961060f366004611f4f565b61126c565b34801561061f575f5ffd5b506102496112dd565b5f600261063760b15460ff1690565b60ff1614905090565b6001600160a01b037f00000000000000000000000000000000000000000000000000000000000000001630036106915760405162461bcd60e51b815260040161068890612137565b60405180910390fd5b7f00000000000000000000000000000000000000000000000000000000000000006001600160a01b03166106c36114ce565b6001600160a01b0316146106e95760405162461bcd60e51b815260040161068890612183565b6106f2816114e9565b604080515f8082526020820190925261070d918391906114f1565b50565b5f61071c84848461165b565b90505b9392505050565b61072e6116ad565b610738335f61173d565b565b61074e60b154610100900460ff1660021490565b1561076c5760405163bae6e2a960e01b815260040160405180910390fd5b600261077a60b15460ff1690565b60ff160361079b5760405163dfc60d8560e01b815260040160405180910390fd5b6107a56002611745565b6107ae3361175b565b6107386001611745565b335f90815260c9602052604081205490036107e657604051632858f9ab60e11b815260040160405180910390fd5b80156107fe57335f90815260cb602052604081205550565b610806611116565b335f90815260cb602052604090205550565b6001600160a01b037f00000000000000000000000000000000000000000000000000000000000000001630036108605760405162461bcd60e51b815260040161068890612137565b7f00000000000000000000000000000000000000000000000000000000000000006001600160a01b03166108926114ce565b6001600160a01b0316146108b85760405162461bcd60e51b815260040161068890612183565b6108c1826114e9565b6108cd828260016114f1565b5050565b5f306001600160a01b037f000000000000000000000000000000000000000000000000000000000000000016146109705760405162461bcd60e51b815260206004820152603860248201527f555550535570677261646561626c653a206d757374206e6f742062652063616c60448201527f6c6564207468726f7567682064656c656761746563616c6c00000000000000006064820152608401610688565b505f5160206123235f395f51905f5290565b6e39ba30b5b4b733afb9b630b9b432b960891b5f6109a1826001610df4565b90506001600160a01b038116158015906109c45750336001600160a01b03821614155b156109e257604051630d85cccf60e11b815260040160405180910390fd5b6001600160a01b0384165f90815260c9602052604081205490819003610a085750610aaa565b5f6064610a1586846121e3565b610a1f91906121fa565b6001600160a01b0387165f90815260c96020526040812080549293508392909190610a4b908490612219565b909155505060cc80548291905f90610a64908490612219565b90915550506040518181526001600160a01b038716907fa69f22d963cb7981f842db8c1aafcc93d915ba2a95dcf26dcc333a9c2a09be269060200160405180910390a250505b50505050565b647461696b6f60d81b610ac4816001610df4565b6001600160a01b0316336001600160a01b031614610af557604051630d85cccf60e11b815260040160405180910390fd5b610b0960b154610100900460ff1660021490565b15610b275760405163bae6e2a960e01b815260040160405180910390fd5b6002610b3560b15460ff1690565b60ff1603610b565760405163dfc60d8560e01b815260040160405180910390fd5b610b606002611745565b60ce546001600160401b03165f03610b8f5760ce805467ffffffffffffffff1916426001600160401b03161790555b60ce545f90610ba7906001600160401b031642612219565b9050805f03610bb65750610ca1565b5f610bbf611894565b9050805f03610bcf575050610ca1565b610bd7611995565b6040516340c10f1960e01b8152306004820152602481018390526001600160a01b0391909116906340c10f19906044015f604051808303815f87803b158015610c1e575f5ffd5b505af1158015610c30573d5f5f3e3d5ffd5b505050508060c96004015f828254610c48919061222c565b909155505060ce805467ffffffffffffffff1916426001600160401b031617905560405181815233907f4f7fd5c9e17300a4800fd572ea53fc291e2ee7470d73346d16b357faee4e72109060200160405180910390a250505b61070d6001611745565b610cb3611a09565b6107385f611a63565b60655433906001600160a01b03168114610d2a5760405162461bcd60e51b815260206004820152602960248201527f4f776e61626c6532537465703a2063616c6c6572206973206e6f7420746865206044820152683732bb9037bbb732b960b91b6064820152608401610688565b61070d81611a63565b610d3b611a7c565b61073833600161173d565b5f610d4f6114ce565b905090565b6e39ba30b5b4b733afb9b630b9b432b960891b5f610d73826001610df4565b90506001600160a01b03811615801590610d965750336001600160a01b03821614155b15610db457604051630d85cccf60e11b815260040160405180910390fd5b5f610dbd611116565b9050610dc88561175b565b610dd2848261222c565b6001600160a01b039095165f90815260ca602052604090209490945550505050565b5f610e0046848461165b565b90505b92915050565b610e1d60b154610100900460ff1660021490565b15610e3b5760405163bae6e2a960e01b815260040160405180910390fd5b6002610e4960b15460ff1690565b60ff1603610e6a5760405163dfc60d8560e01b815260040160405180910390fd5b610e746002611745565b6001600160a01b0382165f90815260c96020526040812054610e9790839061222c565b905069d3c21bcecceda1000000811015610ec457604051638e8af4f960e01b815260040160405180910390fd5b610ecd8361175b565b610ed5611995565b6040516323b872dd60e01b8152336004820152306024820152604481018490526001600160a01b0391909116906323b872dd906064016020604051808303815f875af1158015610f27573d5f5f3e3d5ffd5b505050506040513d601f19601f82011682018060405250810190610f4b919061223f565b506001600160a01b0383165f90815260c9602052604081208054849290610f7390849061222c565b909155505060cc80548391905f90610f8c90849061222c565b90915550506040518281526001600160a01b038416907fb831f69f1cebc12b23cd864ce5bfea2669d01956050a0147d71d418074559c219060200160405180910390a2506108cd6001611745565b6001600160a01b0381165f90815260ca602052604081205480820361100e575060ce54600160401b90046001600160401b03165b5f611017611116565b905080821061102957505f9392505050565b5f62093a806110388484612219565b61104291906121e3565b905080158061106657506001600160a01b0385165f90815260c96020526040902054155b1561107557505f949350505050565b60cc546001600160a01b0386165f90815260c960205260408120549091906110a090620186a06121e3565b6110aa91906121fa565b60ce54909150620186a09062093a80906110d490600160401b90046001600160401b031686612219565b6110de91906121e3565b60cd5484906110ee9085906121e3565b6110f891906121e3565b61110291906121fa565b61110c91906121fa565b9695505050505050565b5f610d4f62093a80426121fa565b5f54610100900460ff161580801561114257505f54600160ff909116105b8061115b5750303b15801561115b57505f5460ff166001145b6111be5760405162461bcd60e51b815260206004820152602e60248201527f496e697469616c697a61626c653a20636f6e747261637420697320616c72656160448201526d191e481a5b9a5d1a585b1a5e995960921b6064820152608401610688565b5f805460ff1916600117905580156111df575f805461ff0019166101001790555b6111e98383611aed565b6111f1611116565b60ce80546001600160401b0392909216600160401b026fffffffffffffffff0000000000000000199092169190911790558015611267575f805461ff0019169055604051600181527f7f26b83ff96e1f2b6a682f133852f6798a09c465da95921460cefb38474024989060200160405180910390a15b505050565b611274611a09565b606580546001600160a01b0383166001600160a01b031990911681179091556112a56033546001600160a01b031690565b6001600160a01b03167f38d16b8cac22d99fc7c124b9cd0de2d3fa1faef420bfe791d8c362d765e2270060405160405180910390a350565b6112f160b154610100900460ff1660021490565b1561130f5760405163bae6e2a960e01b815260040160405180910390fd5b600261131d60b15460ff1690565b60ff160361133e5760405163dfc60d8560e01b815260040160405180910390fd5b6113486002611745565b335f90815260c960205260408120549081900361137857604051632858f9ab60e11b815260040160405180910390fd5b335f90815260cb602052604090205415806113b35750335f90815260cb60205260409020546113a99060029061222c565b6113b1611116565b105b156113d15760405163e46bca9f60e01b815260040160405180910390fd5b335f90815260c96020526040812081905560cc80548392906113f4908490612219565b9091555050335f90815260ca6020908152604080832083905560cb90915281205561141d611995565b60405163a9059cbb60e01b8152336004820152602481018390526001600160a01b03919091169063a9059cbb906044016020604051808303815f875af1158015611469573d5f5f3e3d5ffd5b505050506040513d601f19601f8201168201806040525081019061148d919061223f565b5060405181815233907f7fcf532c15f0a6db0bd6d0e038bea71d30d808c7d98cb3bf7268a95bf5081b659060200160405180910390a2506107386001611745565b5f5160206123235f395f51905f52546001600160a01b031690565b61070d611a09565b7f4910fdfa16fed3260ed0e7147f7cc6da11a60208b5b9406d12a635614ffd91435460ff16156115245761126783611b27565b826001600160a01b03166352d1902d6040518163ffffffff1660e01b8152600401602060405180830381865afa92505050801561157e575060408051601f3d908101601f1916820190925261157b9181019061225a565b60015b6115e15760405162461bcd60e51b815260206004820152602e60248201527f45524331393637557067726164653a206e657720696d706c656d656e7461746960448201526d6f6e206973206e6f74205555505360901b6064820152608401610688565b5f5160206123235f395f51905f52811461164f5760405162461bcd60e51b815260206004820152602960248201527f45524331393637557067726164653a20756e737570706f727465642070726f786044820152681a58589b195555525160ba1b6064820152608401610688565b50611267838383611bc2565b5f6116668484611be6565b90508115801561167d57506001600160a01b038116155b1561071f57604051632b0d65db60e01b81526001600160401b038516600482015260248101849052604401610688565b6116c160b154610100900460ff1660021490565b6116de5760405163bae6e2a960e01b815260040160405180910390fd5b60b1805461010069ffffffffffffffffff001990911662010000426001600160401b031602171790556040513381527f5db9ee0a495bf2e6ff9c91a7834c1ba4fdd244a5e8aa4e537bd38aeae4b073aa906020015b60405180910390a1565b6108cd611a09565b60b1805460ff191660ff92909216919091179055565b5f611764611116565b6001600160a01b0383165f90815260ca6020526040902054909150811161179e5760405163575bb4bb60e01b815260040160405180910390fd5b5f6117a883610fda565b9050805f036117b657505050565b6001600160a01b0383165f90815260ca602052604090208290556117d8611995565b60405163a9059cbb60e01b81526001600160a01b03858116600483015260248201849052919091169063a9059cbb906044016020604051808303815f875af1158015611826573d5f5f3e3d5ffd5b505050506040513d601f19601f8201168201806040525081019061184a919061223f565b5060408051828152602081018490526001600160a01b038516917fe74e5c9d4ac1fc33412485f18c159a0a391efe287ab3fd271123f30e6bacf4e3910160405180910390a2505050565b60ce545f9081906118ae906001600160401b031642612219565b90505f816301e133806127106118c2611995565b6001600160a01b03166318160ddd6040518163ffffffff1660e01b8152600401602060405180830381865afa1580156118fd573d5f5f3e3d5ffd5b505050506040513d601f19601f82011682018060405250810190611921919061225a565b61192d906103b66121e3565b61193791906121fa565b61194191906121fa565b61194b91906121e3565b905069152d02c7e14af680000081111561196c575069152d02c7e14af68000005b61197d662386f26fc10000826121fa565b61198e90662386f26fc100006121e3565b9250505090565b604051635437cecf60e11b81526a3a30b4b5b7afba37b5b2b760a91b60048201525f6024820181905290309063a86f9d9e90604401602060405180830381865afa1580156119e5573d5f5f3e3d5ffd5b505050506040513d601f19601f82011682018060405250810190610d4f9190612271565b6033546001600160a01b031633146107385760405162461bcd60e51b815260206004820181905260248201527f4f776e61626c653a2063616c6c6572206973206e6f7420746865206f776e65726044820152606401610688565b606580546001600160a01b031916905561070d81611c90565b611a9060b154610100900460ff1660021490565b15611aae5760405163bae6e2a960e01b815260040160405180910390fd5b60b1805461ff0019166102001790556040513381527f62e78cea01bee320cd4e420270b5ea74000d11b0c9f74754ebdbfc544b05a25890602001611733565b806001600160a01b038116611b155760405163538ba4f960e01b815260040160405180910390fd5b611b1e83611ce1565b61126782611d3f565b6001600160a01b0381163b611b945760405162461bcd60e51b815260206004820152602d60248201527f455243313936373a206e657720696d706c656d656e746174696f6e206973206e60448201526c1bdd08184818dbdb9d1c9858dd609a1b6064820152608401610688565b5f5160206123235f395f51905f5280546001600160a01b0319166001600160a01b0392909216919091179055565b611bcb83611daf565b5f82511180611bd75750805b1561126757610aaa8383611dee565b6097545f906001600160a01b031680611c1257604051638ed88b2560e01b815260040160405180910390fd5b604051630a3dc4f360e21b81526001600160401b0385166004820152602481018490526001600160a01b038216906328f713cc90604401602060405180830381865afa158015611c64573d5f5f3e3d5ffd5b505050506040513d601f19601f82011682018060405250810190611c889190612271565b949350505050565b603380546001600160a01b038381166001600160a01b0319831681179093556040519116919082907f8be0079c531659141344cd1fd0a4f28419497f9722a3daafe3b4186f6b6457e0905f90a35050565b5f54610100900460ff16611d075760405162461bcd60e51b81526004016106889061228c565b611d0f611e13565b611d2d6001600160a01b03821615611d275781611a63565b33611a63565b5060b1805461ff001916610100179055565b5f54610100900460ff16611d655760405162461bcd60e51b81526004016106889061228c565b6001600160401b03461115611d8d5760405163a12e8fa960e01b815260040160405180910390fd5b609780546001600160a01b0319166001600160a01b0392909216919091179055565b611db881611b27565b6040516001600160a01b038216907fbc7cd75a20ee27fd9adebab32041f755214dbc6bffa90cc0225b39da2e5c2d3b905f90a250565b6060610e00838360405180606001604052806027815260200161234360279139611e39565b5f54610100900460ff166107385760405162461bcd60e51b81526004016106889061228c565b60605f5f856001600160a01b031685604051611e5591906122d7565b5f60405180830381855af49150503d805f8114611e8d576040519150601f19603f3d011682016040523d82523d5f602084013e611e92565b606091505b509150915061110c8683838760608315611f0c5782515f03611f05576001600160a01b0385163b611f055760405162461bcd60e51b815260206004820152601d60248201527f416464726573733a2063616c6c20746f206e6f6e2d636f6e74726163740000006044820152606401610688565b5081611c88565b611c888383815115611f215781518083602001fd5b8060405162461bcd60e51b815260040161068891906122ed565b6001600160a01b038116811461070d575f5ffd5b5f60208284031215611f5f575f5ffd5b813561071f81611f3b565b801515811461070d575f5ffd5b5f5f5f60608486031215611f89575f5ffd5b83356001600160401b0381168114611f9f575f5ffd5b9250602084013591506040840135611fb681611f6a565b809150509250925092565b5f60208284031215611fd1575f5ffd5b813561071f81611f6a565b634e487b7160e01b5f52604160045260245ffd5b5f5f60408385031215612001575f5ffd5b823561200c81611f3b565b915060208301356001600160401b03811115612026575f5ffd5b8301601f81018513612036575f5ffd5b80356001600160401b0381111561204f5761204f611fdc565b604051601f8201601f19908116603f011681016001600160401b038111828210171561207d5761207d611fdc565b604052818152828201602001871015612094575f5ffd5b816020840160208301375f602083830101528093505050509250929050565b5f5f604083850312156120c4575f5ffd5b82356120cf81611f3b565b946020939093013593505050565b5f5f604083850312156120ee575f5ffd5b82359150602083013561210081611f6a565b809150509250929050565b5f5f6040838503121561211c575f5ffd5b823561212781611f3b565b9150602083013561210081611f3b565b6020808252602c908201527f46756e6374696f6e206d7573742062652063616c6c6564207468726f7567682060408201526b19195b1959d85d1958d85b1b60a21b606082015260800190565b6020808252602c908201527f46756e6374696f6e206d7573742062652063616c6c6564207468726f7567682060408201526b6163746976652070726f787960a01b606082015260800190565b634e487b7160e01b5f52601160045260245ffd5b8082028115828204841417610e0357610e036121cf565b5f8261221457634e487b7160e01b5f52601260045260245ffd5b500490565b81810381811115610e0357610e036121cf565b80820180821115610e0357610e036121cf565b5f6020828403121561224f575f5ffd5b815161071f81611f6a565b5f6020828403121561226a575f5ffd5b5051919050565b5f60208284031215612281575f5ffd5b815161071f81611f3b565b6020808252602b908201527f496e697469616c697a61626c653a20636f6e7472616374206973206e6f74206960408201526a6e697469616c697a696e6760a81b606082015260800190565b5f82518060208501845e5f920191825250919050565b602081525f82518060208401528060208501604085015e5f604082850101526040601f19601f8301168401019150509291505056fe360894a13ba1a3210667c828492db98dca3e2076cc3735a920a3ca505d382bbc416464726573733a206c6f772d6c6576656c2064656c65676174652063616c6c206661696c6564a26469706673582212206d8366c88d1cd14c23559c4d819a1d19feae90ac324dd9e4e1e96231ac12fd3164736f6c634300081b0033","linkReferences":{}},"methodIdentifiers":{"EPOCH_DURATION()":"a70b9f0c","MIN_DEPOSIT()":"e1e158a5","WITHDRAWAL_LOCK_EPOCH()":"1b0e9ec7","acceptOwnership()":"79ba5097","addressManager()":"3ab76e9f","getCurrentEpoch()":"b97dd9e2","impl()":"8abf6077","inNonReentrant()":"3075db56","init(address,address)":"f09a4016","lastUnpausedAt()":"e07baba6","owner()":"8da5cb5b","pause()":"8456cb59","pauseUserReward(address,uint256)":"8c7638c4","paused()":"5c975abb","pendingOwner()":"e30c3978","proxiableUUID()":"52d1902d","renounceOwnership()":"715018a6","resolve(bytes32,bool)":"a86f9d9e","resolve(uint64,bytes32,bool)":"3eb6b8cf","stake(address,uint256)":"adc9772e","stakingCalculateRewardDebt(address)":"b1d4a731","stakingClaimReward()":"40d377ef","stakingDepositReward()":"65ad5750","stakingRequestWithdrawal(bool)":"49d2f79b","stakingSlashing(address,uint256)":"54686bfa","stakingState()":"e082f1d4","stakingUserState(address)":"cad9e2ba","stakingWithdrawal()":"fcfcf192","transferOwnership(address)":"f2fde38b","unpause()":"3f4ba83a","upgradeTo(address)":"3659cfe6","upgradeToAndCall(address,bytes)":"4f1ef286"},"storageLayout":{"storage":[{"astId":31425,"contract":"contracts/team/staking/L1Staking.sol:L1Staking","label":"_initialized","offset":0,"slot":"0","type":"t_uint8"},{"astId":31428,"contract":"contracts/team/staking/L1Staking.sol:L1Staking","label":"_initializing","offset":1,"slot":"0","type":"t_bool"},{"astId":36259,"contract":"contracts/team/staking/L1Staking.sol:L1Staking","label":"__gap","offset":0,"slot":"1","type":"t_array(t_uint256)50_storage"},{"astId":31170,"contract":"contracts/team/staking/L1Staking.sol:L1Staking","label":"_owner","offset":0,"slot":"51","type":"t_address"},{"astId":31290,"contract":"contracts/team/staking/L1Staking.sol:L1Staking","label":"__gap","offset":0,"slot":"52","type":"t_array(t_uint256)49_storage"},{"astId":31063,"contract":"contracts/team/staking/L1Staking.sol:L1Staking","label":"_pendingOwner","offset":0,"slot":"101","type":"t_address"},{"astId":31157,"contract":"contracts/team/staking/L1Staking.sol:L1Staking","label":"__gap","offset":0,"slot":"102","type":"t_array(t_uint256)49_storage"},{"astId":16280,"contract":"contracts/team/staking/L1Staking.sol:L1Staking","label":"addressManager","offset":0,"slot":"151","type":"t_address"},{"astId":16284,"contract":"contracts/team/staking/L1Staking.sol:L1Staking","label":"__gap","offset":0,"slot":"152","type":"t_array(t_uint256)25_storage"},{"astId":16606,"contract":"contracts/team/staking/L1Staking.sol:L1Staking","label":"__reentry","offset":0,"slot":"177","type":"t_uint8"},{"astId":16608,"contract":"contracts/team/staking/L1Staking.sol:L1Staking","label":"__paused","offset":1,"slot":"177","type":"t_uint8"},{"astId":16610,"contract":"contracts/team/staking/L1Staking.sol:L1Staking","label":"lastUnpausedAt","offset":2,"slot":"177","type":"t_uint64"},{"astId":16614,"contract":"contracts/team/staking/L1Staking.sol:L1Staking","label":"__gap","offset":0,"slot":"178","type":"t_array(t_uint256)23_storage"},{"astId":22297,"contract":"contracts/team/staking/L1Staking.sol:L1Staking","label":"stakingState","offset":0,"slot":"201","type":"t_struct(StakingState)22243_storage"},{"astId":22301,"contract":"contracts/team/staking/L1Staking.sol:L1Staking","label":"__gap","offset":0,"slot":"247","type":"t_array(t_uint256)50_storage"}],"types":{"t_address":{"encoding":"inplace","label":"address","numberOfBytes":"20"},"t_array(t_uint256)23_storage":{"encoding":"inplace","label":"uint256[23]","numberOfBytes":"736","base":"t_uint256"},"t_array(t_uint256)25_storage":{"encoding":"inplace","label":"uint256[25]","numberOfBytes":"800","base":"t_uint256"},"t_array(t_uint256)40_storage":{"encoding":"inplace","label":"uint256[40]","numberOfBytes":"1280","base":"t_uint256"},"t_array(t_uint256)49_storage":{"encoding":"inplace","label":"uint256[49]","numberOfBytes":"1568","base":"t_uint256"},"t_array(t_uint256)50_storage":{"encoding":"inplace","label":"uint256[50]","numberOfBytes":"1600","base":"t_uint256"},"t_bool":{"encoding":"inplace","label":"bool","numberOfBytes":"1"},"t_mapping(t_address,t_uint256)":{"encoding":"mapping","key":"t_address","label":"mapping(address => uint256)","numberOfBytes":"32","value":"t_uint256"},"t_struct(StakingState)22243_storage":{"encoding":"inplace","label":"struct L1Staking.StakingState","numberOfBytes":"1472","members":[{"astId":22218,"contract":"contracts/team/staking/L1Staking.sol:L1Staking","label":"stakingBalances","offset":0,"slot":"0","type":"t_mapping(t_address,t_uint256)"},{"astId":22222,"contract":"contracts/team/staking/L1Staking.sol:L1Staking","label":"lastClaimedEpoch","offset":0,"slot":"1","type":"t_mapping(t_address,t_uint256)"},{"astId":22226,"contract":"contracts/team/staking/L1Staking.sol:L1Staking","label":"withdrawalRequestEpoch","offset":0,"slot":"2","type":"t_mapping(t_address,t_uint256)"},{"astId":22228,"contract":"contracts/team/staking/L1Staking.sol:L1Staking","label":"totalBalance","offset":0,"slot":"3","type":"t_uint256"},{"astId":22230,"contract":"contracts/team/staking/L1Staking.sol:L1Staking","label":"totalReward","offset":0,"slot":"4","type":"t_uint256"},{"astId":22232,"contract":"contracts/team/staking/L1Staking.sol:L1Staking","label":"lastDepositRewardTime","offset":0,"slot":"5","type":"t_uint64"},{"astId":22234,"contract":"contracts/team/staking/L1Staking.sol:L1Staking","label":"rewardBeginEpoch","offset":8,"slot":"5","type":"t_uint64"},{"astId":22236,"contract":"contracts/team/staking/L1Staking.sol:L1Staking","label":"__reserved2","offset":16,"slot":"5","type":"t_uint64"},{"astId":22238,"contract":"contracts/team/staking/L1Staking.sol:L1Staking","label":"__reserved3","offset":24,"slot":"5","type":"t_uint64"},{"astId":22242,"contract":"contracts/team/staking/L1Staking.sol:L1Staking","label":"__gap","offset":0,"slot":"6","type":"t_array(t_uint256)40_storage"}]},"t_uint256":{"encoding":"inplace","label":"uint256","numberOfBytes":"32"},"t_uint64":{"encoding":"inplace","label":"uint64","numberOfBytes":"8"},"t_uint8":{"encoding":"inplace","label":"uint8","numberOfBytes":"1"}}},"id":89}